{
  "_format": "hh-sol-artifact-1",
  "contractName": "MyNFT",
  "sourceName": "contracts/MyNFT.sol",
  "abi": [
    {
      "inputs": [
        {
          "internalType": "string",
          "name": "_name",
          "type": "string"
        },
        {
          "internalType": "string",
          "name": "_symbol",
          "type": "string"
        },
        {
          "internalType": "uint96",
          "name": "_royaltyFeesInBips",
          "type": "uint96"
        }
      ],
      "stateMutability": "nonpayable",
      "type": "constructor"
    },
    {
      "inputs": [
        {
          "internalType": "uint256",
          "name": "numerator",
          "type": "uint256"
        },
        {
          "internalType": "uint256",
          "name": "denominator",
          "type": "uint256"
        }
      ],
      "name": "ERC2981InvalidDefaultRoyalty",
      "type": "error"
    },
    {
      "inputs": [
        {
          "internalType": "address",
          "name": "receiver",
          "type": "address"
        }
      ],
      "name": "ERC2981InvalidDefaultRoyaltyReceiver",
      "type": "error"
    },
    {
      "inputs": [
        {
          "internalType": "uint256",
          "name": "tokenId",
          "type": "uint256"
        },
        {
          "internalType": "uint256",
          "name": "numerator",
          "type": "uint256"
        },
        {
          "internalType": "uint256",
          "name": "denominator",
          "type": "uint256"
        }
      ],
      "name": "ERC2981InvalidTokenRoyalty",
      "type": "error"
    },
    {
      "inputs": [
        {
          "internalType": "uint256",
          "name": "tokenId",
          "type": "uint256"
        },
        {
          "internalType": "address",
          "name": "receiver",
          "type": "address"
        }
      ],
      "name": "ERC2981InvalidTokenRoyaltyReceiver",
      "type": "error"
    },
    {
      "inputs": [
        {
          "internalType": "address",
          "name": "sender",
          "type": "address"
        },
        {
          "internalType": "uint256",
          "name": "tokenId",
          "type": "uint256"
        },
        {
          "internalType": "address",
          "name": "owner",
          "type": "address"
        }
      ],
      "name": "ERC721IncorrectOwner",
      "type": "error"
    },
    {
      "inputs": [
        {
          "internalType": "address",
          "name": "operator",
          "type": "address"
        },
        {
          "internalType": "uint256",
          "name": "tokenId",
          "type": "uint256"
        }
      ],
      "name": "ERC721InsufficientApproval",
      "type": "error"
    },
    {
      "inputs": [
        {
          "internalType": "address",
          "name": "approver",
          "type": "address"
        }
      ],
      "name": "ERC721InvalidApprover",
      "type": "error"
    },
    {
      "inputs": [
        {
          "internalType": "address",
          "name": "operator",
          "type": "address"
        }
      ],
      "name": "ERC721InvalidOperator",
      "type": "error"
    },
    {
      "inputs": [
        {
          "internalType": "address",
          "name": "owner",
          "type": "address"
        }
      ],
      "name": "ERC721InvalidOwner",
      "type": "error"
    },
    {
      "inputs": [
        {
          "internalType": "address",
          "name": "receiver",
          "type": "address"
        }
      ],
      "name": "ERC721InvalidReceiver",
      "type": "error"
    },
    {
      "inputs": [
        {
          "internalType": "address",
          "name": "sender",
          "type": "address"
        }
      ],
      "name": "ERC721InvalidSender",
      "type": "error"
    },
    {
      "inputs": [
        {
          "internalType": "uint256",
          "name": "tokenId",
          "type": "uint256"
        }
      ],
      "name": "ERC721NonexistentToken",
      "type": "error"
    },
    {
      "inputs": [
        {
          "internalType": "address",
          "name": "owner",
          "type": "address"
        }
      ],
      "name": "OwnableInvalidOwner",
      "type": "error"
    },
    {
      "inputs": [
        {
          "internalType": "address",
          "name": "account",
          "type": "address"
        }
      ],
      "name": "OwnableUnauthorizedAccount",
      "type": "error"
    },
    {
      "anonymous": false,
      "inputs": [
        {
          "indexed": true,
          "internalType": "address",
          "name": "owner",
          "type": "address"
        },
        {
          "indexed": true,
          "internalType": "address",
          "name": "approved",
          "type": "address"
        },
        {
          "indexed": true,
          "internalType": "uint256",
          "name": "tokenId",
          "type": "uint256"
        }
      ],
      "name": "Approval",
      "type": "event"
    },
    {
      "anonymous": false,
      "inputs": [
        {
          "indexed": true,
          "internalType": "address",
          "name": "owner",
          "type": "address"
        },
        {
          "indexed": true,
          "internalType": "address",
          "name": "operator",
          "type": "address"
        },
        {
          "indexed": false,
          "internalType": "bool",
          "name": "approved",
          "type": "bool"
        }
      ],
      "name": "ApprovalForAll",
      "type": "event"
    },
    {
      "anonymous": false,
      "inputs": [
        {
          "indexed": true,
          "internalType": "address",
          "name": "previousOwner",
          "type": "address"
        },
        {
          "indexed": true,
          "internalType": "address",
          "name": "newOwner",
          "type": "address"
        }
      ],
      "name": "OwnershipTransferred",
      "type": "event"
    },
    {
      "anonymous": false,
      "inputs": [
        {
          "indexed": true,
          "internalType": "address",
          "name": "from",
          "type": "address"
        },
        {
          "indexed": true,
          "internalType": "address",
          "name": "to",
          "type": "address"
        },
        {
          "indexed": true,
          "internalType": "uint256",
          "name": "tokenId",
          "type": "uint256"
        }
      ],
      "name": "Transfer",
      "type": "event"
    },
    {
      "inputs": [],
      "name": "MAX_SUPPLY",
      "outputs": [
        {
          "internalType": "uint256",
          "name": "",
          "type": "uint256"
        }
      ],
      "stateMutability": "view",
      "type": "function"
    },
    {
      "inputs": [],
      "name": "MINT_LIMIT",
      "outputs": [
        {
          "internalType": "uint256",
          "name": "",
          "type": "uint256"
        }
      ],
      "stateMutability": "view",
      "type": "function"
    },
    {
      "inputs": [
        {
          "internalType": "bytes32[]",
          "name": "merkleProof",
          "type": "bytes32[]"
        },
        {
          "internalType": "uint256",
          "name": "quantity",
          "type": "uint256"
        }
      ],
      "name": "allowlistMint",
      "outputs": [],
      "stateMutability": "payable",
      "type": "function"
    },
    {
      "inputs": [
        {
          "internalType": "address",
          "name": "",
          "type": "address"
        }
      ],
      "name": "amountMintedPerWallet",
      "outputs": [
        {
          "internalType": "uint256",
          "name": "",
          "type": "uint256"
        }
      ],
      "stateMutability": "view",
      "type": "function"
    },
    {
      "inputs": [
        {
          "internalType": "address",
          "name": "to",
          "type": "address"
        },
        {
          "internalType": "uint256",
          "name": "tokenId",
          "type": "uint256"
        }
      ],
      "name": "approve",
      "outputs": [],
      "stateMutability": "nonpayable",
      "type": "function"
    },
    {
      "inputs": [
        {
          "internalType": "address",
          "name": "owner",
          "type": "address"
        }
      ],
      "name": "balanceOf",
      "outputs": [
        {
          "internalType": "uint256",
          "name": "",
          "type": "uint256"
        }
      ],
      "stateMutability": "view",
      "type": "function"
    },
    {
      "inputs": [],
      "name": "baseURI",
      "outputs": [
        {
          "internalType": "string",
          "name": "",
          "type": "string"
        }
      ],
      "stateMutability": "view",
      "type": "function"
    },
    {
      "inputs": [
        {
          "internalType": "uint256",
          "name": "tokenId",
          "type": "uint256"
        }
      ],
      "name": "getApproved",
      "outputs": [
        {
          "internalType": "address",
          "name": "",
          "type": "address"
        }
      ],
      "stateMutability": "view",
      "type": "function"
    },
    {
      "inputs": [
        {
          "internalType": "address",
          "name": "owner",
          "type": "address"
        },
        {
          "internalType": "address",
          "name": "operator",
          "type": "address"
        }
      ],
      "name": "isApprovedForAll",
      "outputs": [
        {
          "internalType": "bool",
          "name": "",
          "type": "bool"
        }
      ],
      "stateMutability": "view",
      "type": "function"
    },
    {
      "inputs": [],
      "name": "isRevealed",
      "outputs": [
        {
          "internalType": "bool",
          "name": "",
          "type": "bool"
        }
      ],
      "stateMutability": "view",
      "type": "function"
    },
    {
      "inputs": [],
      "name": "merkleRoot",
      "outputs": [
        {
          "internalType": "bytes32",
          "name": "",
          "type": "bytes32"
        }
      ],
      "stateMutability": "view",
      "type": "function"
    },
    {
      "inputs": [],
      "name": "name",
      "outputs": [
        {
          "internalType": "string",
          "name": "",
          "type": "string"
        }
      ],
      "stateMutability": "view",
      "type": "function"
    },
    {
      "inputs": [],
      "name": "owner",
      "outputs": [
        {
          "internalType": "address",
          "name": "",
          "type": "address"
        }
      ],
      "stateMutability": "view",
      "type": "function"
    },
    {
      "inputs": [
        {
          "internalType": "uint256",
          "name": "tokenId",
          "type": "uint256"
        }
      ],
      "name": "ownerOf",
      "outputs": [
        {
          "internalType": "address",
          "name": "",
          "type": "address"
        }
      ],
      "stateMutability": "view",
      "type": "function"
    },
    {
      "inputs": [],
      "name": "price",
      "outputs": [
        {
          "internalType": "uint256",
          "name": "",
          "type": "uint256"
        }
      ],
      "stateMutability": "view",
      "type": "function"
    },
    {
      "inputs": [
        {
          "internalType": "uint256",
          "name": "quantity",
          "type": "uint256"
        }
      ],
      "name": "publicMint",
      "outputs": [],
      "stateMutability": "payable",
      "type": "function"
    },
    {
      "inputs": [],
      "name": "renounceOwnership",
      "outputs": [],
      "stateMutability": "nonpayable",
      "type": "function"
    },
    {
      "inputs": [],
      "name": "reveal",
      "outputs": [],
      "stateMutability": "nonpayable",
      "type": "function"
    },
    {
      "inputs": [],
      "name": "revealedURI",
      "outputs": [
        {
          "internalType": "string",
          "name": "",
          "type": "string"
        }
      ],
      "stateMutability": "view",
      "type": "function"
    },
    {
      "inputs": [
        {
          "internalType": "uint256",
          "name": "tokenId",
          "type": "uint256"
        },
        {
          "internalType": "uint256",
          "name": "salePrice",
          "type": "uint256"
        }
      ],
      "name": "royaltyInfo",
      "outputs": [
        {
          "internalType": "address",
          "name": "receiver",
          "type": "address"
        },
        {
          "internalType": "uint256",
          "name": "amount",
          "type": "uint256"
        }
      ],
      "stateMutability": "view",
      "type": "function"
    },
    {
      "inputs": [
        {
          "internalType": "address",
          "name": "from",
          "type": "address"
        },
        {
          "internalType": "address",
          "name": "to",
          "type": "address"
        },
        {
          "internalType": "uint256",
          "name": "tokenId",
          "type": "uint256"
        }
      ],
      "name": "safeTransferFrom",
      "outputs": [],
      "stateMutability": "nonpayable",
      "type": "function"
    },
    {
      "inputs": [
        {
          "internalType": "address",
          "name": "from",
          "type": "address"
        },
        {
          "internalType": "address",
          "name": "to",
          "type": "address"
        },
        {
          "internalType": "uint256",
          "name": "tokenId",
          "type": "uint256"
        },
        {
          "internalType": "bytes",
          "name": "data",
          "type": "bytes"
        }
      ],
      "name": "safeTransferFrom",
      "outputs": [],
      "stateMutability": "nonpayable",
      "type": "function"
    },
    {
      "inputs": [],
      "name": "saleState",
      "outputs": [
        {
          "internalType": "enum MyNFT.SaleState",
          "name": "",
          "type": "uint8"
        }
      ],
      "stateMutability": "view",
      "type": "function"
    },
    {
      "inputs": [
        {
          "internalType": "address",
          "name": "operator",
          "type": "address"
        },
        {
          "internalType": "bool",
          "name": "approved",
          "type": "bool"
        }
      ],
      "name": "setApprovalForAll",
      "outputs": [],
      "stateMutability": "nonpayable",
      "type": "function"
    },
    {
      "inputs": [
        {
          "internalType": "string",
          "name": "_newBaseURI",
          "type": "string"
        }
      ],
      "name": "setBaseURI",
      "outputs": [],
      "stateMutability": "nonpayable",
      "type": "function"
    },
    {
      "inputs": [
        {
          "internalType": "bytes32",
          "name": "_newMerkleRoot",
          "type": "bytes32"
        }
      ],
      "name": "setMerkleRoot",
      "outputs": [],
      "stateMutability": "nonpayable",
      "type": "function"
    },
    {
      "inputs": [
        {
          "internalType": "uint256",
          "name": "_newPrice",
          "type": "uint256"
        }
      ],
      "name": "setPrice",
      "outputs": [],
      "stateMutability": "nonpayable",
      "type": "function"
    },
    {
      "inputs": [
        {
          "internalType": "string",
          "name": "_newRevealedURI",
          "type": "string"
        }
      ],
      "name": "setRevealedURI",
      "outputs": [],
      "stateMutability": "nonpayable",
      "type": "function"
    },
    {
      "inputs": [
        {
          "internalType": "enum MyNFT.SaleState",
          "name": "_newState",
          "type": "uint8"
        }
      ],
      "name": "setSaleState",
      "outputs": [],
      "stateMutability": "nonpayable",
      "type": "function"
    },
    {
      "inputs": [
        {
          "internalType": "bytes4",
          "name": "interfaceId",
          "type": "bytes4"
        }
      ],
      "name": "supportsInterface",
      "outputs": [
        {
          "internalType": "bool",
          "name": "",
          "type": "bool"
        }
      ],
      "stateMutability": "view",
      "type": "function"
    },
    {
      "inputs": [],
      "name": "symbol",
      "outputs": [
        {
          "internalType": "string",
          "name": "",
          "type": "string"
        }
      ],
      "stateMutability": "view",
      "type": "function"
    },
    {
      "inputs": [
        {
          "internalType": "uint256",
          "name": "tokenId",
          "type": "uint256"
        }
      ],
      "name": "tokenURI",
      "outputs": [
        {
          "internalType": "string",
          "name": "",
          "type": "string"
        }
      ],
      "stateMutability": "view",
      "type": "function"
    },
    {
      "inputs": [],
      "name": "totalSupply",
      "outputs": [
        {
          "internalType": "uint256",
          "name": "",
          "type": "uint256"
        }
      ],
      "stateMutability": "view",
      "type": "function"
    },
    {
      "inputs": [
        {
          "internalType": "address",
          "name": "from",
          "type": "address"
        },
        {
          "internalType": "address",
          "name": "to",
          "type": "address"
        },
        {
          "internalType": "uint256",
          "name": "tokenId",
          "type": "uint256"
        }
      ],
      "name": "transferFrom",
      "outputs": [],
      "stateMutability": "nonpayable",
      "type": "function"
    },
    {
      "inputs": [
        {
          "internalType": "address",
          "name": "newOwner",
          "type": "address"
        }
      ],
      "name": "transferOwnership",
      "outputs": [],
      "stateMutability": "nonpayable",
      "type": "function"
    },
    {
      "inputs": [],
      "name": "withdraw",
      "outputs": [],
      "stateMutability": "nonpayable",
      "type": "function"
    }
  ],
  "bytecode": "0x608060405266b1a2bc2ec50000600a55600b805460ff19908116909155600f805490911690553480156200003257600080fd5b506040516200242938038062002429833981016040819052620000559162000287565b3383836000620000668382620003a3565b506001620000758282620003a3565b5050506001600160a01b038116620000a857604051631e4fbdf760e01b8152600060048201526024015b60405180910390fd5b620000b381620000c9565b50620000c033826200011b565b5050506200046f565b600880546001600160a01b038381166001600160a01b0319831681179093556040519116919082907f8be0079c531659141344cd1fd0a4f28419497f9722a3daafe3b4186f6b6457e090600090a35050565b6127106001600160601b0382168110156200015c57604051636f483d0960e01b81526001600160601b0383166004820152602481018290526044016200009f565b6001600160a01b0383166200018857604051635b6cc80560e11b8152600060048201526024016200009f565b50604080518082019091526001600160a01b039092168083526001600160601b039091166020909201829052600160a01b90910217600655565b634e487b7160e01b600052604160045260246000fd5b600082601f830112620001ea57600080fd5b81516001600160401b0380821115620002075762000207620001c2565b604051601f8301601f19908116603f01168101908282118183101715620002325762000232620001c2565b816040528381526020925086838588010111156200024f57600080fd5b600091505b8382101562000273578582018301518183018401529082019062000254565b600093810190920192909252949350505050565b6000806000606084860312156200029d57600080fd5b83516001600160401b0380821115620002b557600080fd5b620002c387838801620001d8565b94506020860151915080821115620002da57600080fd5b50620002e986828701620001d8565b604086015190935090506001600160601b03811681146200030957600080fd5b809150509250925092565b600181811c908216806200032957607f821691505b6020821081036200034a57634e487b7160e01b600052602260045260246000fd5b50919050565b601f8211156200039e57600081815260208120601f850160051c81016020861015620003795750805b601f850160051c820191505b818110156200039a5782815560010162000385565b5050505b505050565b81516001600160401b03811115620003bf57620003bf620001c2565b620003d781620003d0845462000314565b8462000350565b602080601f8311600181146200040f5760008415620003f65750858301515b600019600386901b1c1916600185901b1785556200039a565b600085815260208120601f198616915b8281101562000440578886015182559484019460019091019084016200041f565b50858210156200045f5787850151600019600388901b60f8161c191681555b5050505050600190811b01905550565b611faa806200047f6000396000f3fe60806040526004361061020f5760003560e01c80635a67de071161011857806395d89b41116100a0578063b88d4fde1161006f578063b88d4fde146105da578063c87b56dd146105fa578063e985e9c51461061a578063f2fde38b1461063a578063f7e8d6ea1461065a57600080fd5b806395d89b411461057a578063a035b1fe1461058f578063a22cb465146105a5578063a475b5dd146105c557600080fd5b806370a08231116100e757806370a08231146104e7578063715018a6146105075780637cb647591461051c5780638da5cb5b1461053c57806391b7f5ed1461055a57600080fd5b80635a67de071461046b578063603f4d521461048b5780636352211e146104b25780636c0360eb146104d257600080fd5b80632db115441161019b5780633ccfd60b1161016a5780633ccfd60b146103cf57806342842e0e146103e4578063453481c01461040457806354214f691461043157806355f804b31461044b57600080fd5b80632db11544146103705780632eb4a7ab14610383578063326d43881461039957806332cb6b0c146103b957600080fd5b8063095ea7b3116101e2578063095ea7b3146102c65780631338a83f146102e857806318160ddd146102fb57806323b872dd146103115780632a55205a1461033157600080fd5b806301ffc9a714610214578063027752401461024957806306fdde031461026c578063081812fc1461028e575b600080fd5b34801561022057600080fd5b5061023461022f366004611905565b61066f565b60405190151581526020015b60405180910390f35b34801561025557600080fd5b5061025e600581565b604051908152602001610240565b34801561027857600080fd5b50610281610680565b6040516102409190611972565b34801561029a57600080fd5b506102ae6102a9366004611985565b610712565b6040516001600160a01b039091168152602001610240565b3480156102d257600080fd5b506102e66102e13660046119ba565b61073b565b005b6102e66102f63660046119e4565b61074a565b34801561030757600080fd5b5061025e60095481565b34801561031d57600080fd5b506102e661032c366004611a5f565b610993565b34801561033d57600080fd5b5061035161034c366004611a9b565b610a18565b604080516001600160a01b039093168352602083019190915201610240565b6102e661037e366004611985565b610a9d565b34801561038f57600080fd5b5061025e600c5481565b3480156103a557600080fd5b506102e66103b4366004611abd565b610c1a565b3480156103c557600080fd5b5061025e61271081565b3480156103db57600080fd5b506102e6610c34565b3480156103f057600080fd5b506102e66103ff366004611a5f565b610ce4565b34801561041057600080fd5b5061025e61041f366004611b2f565b60106020526000908152604090205481565b34801561043d57600080fd5b50600f546102349060ff1681565b34801561045757600080fd5b506102e6610466366004611abd565b610cff565b34801561047757600080fd5b506102e6610486366004611b4a565b610d14565b34801561049757600080fd5b50600b546104a59060ff1681565b6040516102409190611b81565b3480156104be57600080fd5b506102ae6104cd366004611985565b610d43565b3480156104de57600080fd5b50610281610d4e565b3480156104f357600080fd5b5061025e610502366004611b2f565b610ddc565b34801561051357600080fd5b506102e6610e24565b34801561052857600080fd5b506102e6610537366004611985565b610e38565b34801561054857600080fd5b506008546001600160a01b03166102ae565b34801561056657600080fd5b506102e6610575366004611985565b610e45565b34801561058657600080fd5b50610281610e52565b34801561059b57600080fd5b5061025e600a5481565b3480156105b157600080fd5b506102e66105c0366004611ba9565b610e61565b3480156105d157600080fd5b506102e6610e6c565b3480156105e657600080fd5b506102e66105f5366004611bfb565b610e83565b34801561060657600080fd5b50610281610615366004611985565b610e9b565b34801561062657600080fd5b50610234610635366004611cd7565b610f99565b34801561064657600080fd5b506102e6610655366004611b2f565b610fc7565b34801561066657600080fd5b50610281611002565b600061067a8261100f565b92915050565b60606000805461068f90611d0a565b80601f01602080910402602001604051908101604052809291908181526020018280546106bb90611d0a565b80156107085780601f106106dd57610100808354040283529160200191610708565b820191906000526020600020905b8154815290600101906020018083116106eb57829003601f168201915b5050505050905090565b600061071d82611034565b506000828152600460205260409020546001600160a01b031661067a565b61074682823361106d565b5050565b6001600b5460ff16600281111561076357610763611b6b565b146107b55760405162461bcd60e51b815260206004820152601960248201527f416c6c6f776c6973742073616c65206e6f74206163746976650000000000000060448201526064015b60405180910390fd5b612710816009546107c69190611d5a565b111561080e5760405162461bcd60e51b8152602060048201526017602482015276576f756c6420657863656564206d617820737570706c7960481b60448201526064016107ac565b3360009081526010602052604090205460059061082c908390611d5a565b11156108715760405162461bcd60e51b8152602060048201526014602482015273115e18d959591cc81dd85b1b195d081b1a5b5a5d60621b60448201526064016107ac565b80600a5461087f9190611d6d565b3410156108c65760405162461bcd60e51b8152602060048201526015602482015274125b9cdd59999a58da595b9d08115512081cd95b9d605a1b60448201526064016107ac565b6040516bffffffffffffffffffffffff193360601b16602082015260009060340160405160208183030381529060405280519060200120905061094084848080602002602001604051908101604052809392919081815260200183836020028082843760009201919091525050600c54915084905061107a565b6109835760405162461bcd60e51b815260206004820152601460248201527324b73b30b634b21026b2b935b63290283937b7b360611b60448201526064016107ac565b61098d3383611090565b50505050565b6001600160a01b0382166109bd57604051633250574960e11b8152600060048201526024016107ac565b60006109ca838333611112565b9050836001600160a01b0316816001600160a01b03161461098d576040516364283d7b60e01b81526001600160a01b03808616600483015260248201849052821660448201526064016107ac565b600082815260076020526040812080548291906001600160a01b03811690600160a01b90046001600160601b031681610a6c5750506006546001600160a01b03811690600160a01b90046001600160601b03165b6000612710610a846001600160601b03841689611d6d565b610a8e9190611d84565b92989297509195505050505050565b6002600b5460ff166002811115610ab657610ab6611b6b565b14610afc5760405162461bcd60e51b81526020600482015260166024820152755075626c69632073616c65206e6f742061637469766560501b60448201526064016107ac565b61271081600954610b0d9190611d5a565b1115610b555760405162461bcd60e51b8152602060048201526017602482015276576f756c6420657863656564206d617820737570706c7960481b60448201526064016107ac565b33600090815260106020526040902054600590610b73908390611d5a565b1115610bb85760405162461bcd60e51b8152602060048201526014602482015273115e18d959591cc81dd85b1b195d081b1a5b5a5d60621b60448201526064016107ac565b80600a54610bc69190611d6d565b341015610c0d5760405162461bcd60e51b8152602060048201526015602482015274125b9cdd59999a58da595b9d08115512081cd95b9d605a1b60448201526064016107ac565b610c173382611090565b50565b610c2261120b565b600e610c2f828483611dec565b505050565b610c3c61120b565b6000610c506008546001600160a01b031690565b6001600160a01b03164760405160006040518083038185875af1925050503d8060008114610c9a576040519150601f19603f3d011682016040523d82523d6000602084013e610c9f565b606091505b5050905080610c175760405162461bcd60e51b815260206004820152601160248201527015da5d1a191c985dd85b0819985a5b1959607a1b60448201526064016107ac565b610c2f83838360405180602001604052806000815250610e83565b610d0761120b565b600d610c2f828483611dec565b610d1c61120b565b600b805482919060ff19166001836002811115610d3b57610d3b611b6b565b021790555050565b600061067a82611034565b600d8054610d5b90611d0a565b80601f0160208091040260200160405190810160405280929190818152602001828054610d8790611d0a565b8015610dd45780601f10610da957610100808354040283529160200191610dd4565b820191906000526020600020905b815481529060010190602001808311610db757829003601f168201915b505050505081565b60006001600160a01b038216610e08576040516322718ad960e21b8152600060048201526024016107ac565b506001600160a01b031660009081526003602052604090205490565b610e2c61120b565b610e366000611238565b565b610e4061120b565b600c55565b610e4d61120b565b600a55565b60606001805461068f90611d0a565b61074633838361128a565b610e7461120b565b600f805460ff19166001179055565b610e8e848484610993565b61098d3385858585611329565b6060610ea682611034565b50600f5460009060ff16610ebb57600d610ebe565b600e5b8054610ec990611d0a565b80601f0160208091040260200160405190810160405280929190818152602001828054610ef590611d0a565b8015610f425780601f10610f1757610100808354040283529160200191610f42565b820191906000526020600020905b815481529060010190602001808311610f2557829003601f168201915b505050505090506000815111610f675760405180602001604052806000815250610f92565b80610f7184611454565b604051602001610f82929190611eac565b6040516020818303038152906040525b9392505050565b6001600160a01b03918216600090815260056020908152604080832093909416825291909152205460ff1690565b610fcf61120b565b6001600160a01b038116610ff957604051631e4fbdf760e01b8152600060048201526024016107ac565b610c1781611238565b600e8054610d5b90611d0a565b60006001600160e01b0319821663152a902d60e11b148061067a575061067a826114e7565b6000818152600260205260408120546001600160a01b03168061067a57604051637e27328960e01b8152600481018490526024016107ac565b610c2f8383836001611537565b600082611087858461163d565b14949350505050565b60005b818110156110e057600060095460016110ac9190611d5a565b6009805491925060006110be83611eeb565b91905055506110cd848261168a565b50806110d881611eeb565b915050611093565b506001600160a01b03821660009081526010602052604081208054839290611109908490611d5a565b90915550505050565b6000828152600260205260408120546001600160a01b039081169083161561113f5761113f8184866116a4565b6001600160a01b0381161561117d5761115c600085600080611537565b6001600160a01b038116600090815260036020526040902080546000190190555b6001600160a01b038516156111ac576001600160a01b0385166000908152600360205260409020805460010190555b60008481526002602052604080822080546001600160a01b0319166001600160a01b0389811691821790925591518793918516917fddf252ad1be2c89b69c2b068fc378daa952ba7f163c4a11628f55a4df523b3ef91a4949350505050565b6008546001600160a01b03163314610e365760405163118cdaa760e01b81523360048201526024016107ac565b600880546001600160a01b038381166001600160a01b0319831681179093556040519116919082907f8be0079c531659141344cd1fd0a4f28419497f9722a3daafe3b4186f6b6457e090600090a35050565b6001600160a01b0382166112bc57604051630b61174360e31b81526001600160a01b03831660048201526024016107ac565b6001600160a01b03838116600081815260056020908152604080832094871680845294825291829020805460ff191686151590811790915591519182527f17307eab39ab6107e8899845ad3d59bd9653f200f220920489ca2b5937696c31910160405180910390a3505050565b6001600160a01b0383163b1561144d57604051630a85bd0160e11b81526001600160a01b0384169063150b7a029061136b908890889087908790600401611f04565b6020604051808303816000875af19250505080156113a6575060408051601f3d908101601f191682019092526113a391810190611f41565b60015b61140f573d8080156113d4576040519150601f19603f3d011682016040523d82523d6000602084013e6113d9565b606091505b50805160000361140757604051633250574960e11b81526001600160a01b03851660048201526024016107ac565b805160208201fd5b6001600160e01b03198116630a85bd0160e11b1461144b57604051633250574960e11b81526001600160a01b03851660048201526024016107ac565b505b5050505050565b6060600061146183611708565b600101905060008167ffffffffffffffff81111561148157611481611be5565b6040519080825280601f01601f1916602001820160405280156114ab576020820181803683370190505b5090508181016020015b600019016f181899199a1a9b1b9c1cb0b131b232b360811b600a86061a8153600a85049450846114b557509392505050565b60006001600160e01b031982166380ac58cd60e01b148061151857506001600160e01b03198216635b5e139f60e01b145b8061067a57506301ffc9a760e01b6001600160e01b031983161461067a565b808061154b57506001600160a01b03821615155b1561160d57600061155b84611034565b90506001600160a01b038316158015906115875750826001600160a01b0316816001600160a01b031614155b801561159a57506115988184610f99565b155b156115c35760405163a9fbf51f60e01b81526001600160a01b03841660048201526024016107ac565b811561160b5783856001600160a01b0316826001600160a01b03167f8c5be1e5ebec7d5bd14f71427d1e84f3dd0314c0f7b2291e5b200ac8c7c3b92560405160405180910390a45b505b5050600090815260046020526040902080546001600160a01b0319166001600160a01b0392909216919091179055565b600081815b84518110156116825761166e8286838151811061166157611661611f5e565b60200260200101516117e0565b91508061167a81611eeb565b915050611642565b509392505050565b61074682826040518060200160405280600081525061180c565b6116af838383611824565b610c2f576001600160a01b0383166116dd57604051637e27328960e01b8152600481018290526024016107ac565b60405163177e802f60e01b81526001600160a01b0383166004820152602481018290526044016107ac565b60008072184f03e93ff9f4daa797ed6e38ed64bf6a1f0160401b83106117475772184f03e93ff9f4daa797ed6e38ed64bf6a1f0160401b830492506040015b6d04ee2d6d415b85acef81000000008310611773576d04ee2d6d415b85acef8100000000830492506020015b662386f26fc10000831061179157662386f26fc10000830492506010015b6305f5e10083106117a9576305f5e100830492506008015b61271083106117bd57612710830492506004015b606483106117cf576064830492506002015b600a831061067a5760010192915050565b60008183106117fc576000828152602084905260409020610f92565b5060009182526020526040902090565b611816838361188a565b610c2f336000858585611329565b60006001600160a01b038316158015906118825750826001600160a01b0316846001600160a01b0316148061185e575061185e8484610f99565b8061188257506000828152600460205260409020546001600160a01b038481169116145b949350505050565b6001600160a01b0382166118b457604051633250574960e11b8152600060048201526024016107ac565b60006118c283836000611112565b90506001600160a01b03811615610c2f576040516339e3563760e11b8152600060048201526024016107ac565b6001600160e01b031981168114610c1757600080fd5b60006020828403121561191757600080fd5b8135610f92816118ef565b60005b8381101561193d578181015183820152602001611925565b50506000910152565b6000815180845261195e816020860160208601611922565b601f01601f19169290920160200192915050565b602081526000610f926020830184611946565b60006020828403121561199757600080fd5b5035919050565b80356001600160a01b03811681146119b557600080fd5b919050565b600080604083850312156119cd57600080fd5b6119d68361199e565b946020939093013593505050565b6000806000604084860312156119f957600080fd5b833567ffffffffffffffff80821115611a1157600080fd5b818601915086601f830112611a2557600080fd5b813581811115611a3457600080fd5b8760208260051b8501011115611a4957600080fd5b6020928301989097509590910135949350505050565b600080600060608486031215611a7457600080fd5b611a7d8461199e565b9250611a8b6020850161199e565b9150604084013590509250925092565b60008060408385031215611aae57600080fd5b50508035926020909101359150565b60008060208385031215611ad057600080fd5b823567ffffffffffffffff80821115611ae857600080fd5b818501915085601f830112611afc57600080fd5b813581811115611b0b57600080fd5b866020828501011115611b1d57600080fd5b60209290920196919550909350505050565b600060208284031215611b4157600080fd5b610f928261199e565b600060208284031215611b5c57600080fd5b813560038110610f9257600080fd5b634e487b7160e01b600052602160045260246000fd5b6020810160038310611ba357634e487b7160e01b600052602160045260246000fd5b91905290565b60008060408385031215611bbc57600080fd5b611bc58361199e565b915060208301358015158114611bda57600080fd5b809150509250929050565b634e487b7160e01b600052604160045260246000fd5b60008060008060808587031215611c1157600080fd5b611c1a8561199e565b9350611c286020860161199e565b925060408501359150606085013567ffffffffffffffff80821115611c4c57600080fd5b818701915087601f830112611c6057600080fd5b813581811115611c7257611c72611be5565b604051601f8201601f19908116603f01168101908382118183101715611c9a57611c9a611be5565b816040528281528a6020848701011115611cb357600080fd5b82602086016020830137600060208483010152809550505050505092959194509250565b60008060408385031215611cea57600080fd5b611cf38361199e565b9150611d016020840161199e565b90509250929050565b600181811c90821680611d1e57607f821691505b602082108103611d3e57634e487b7160e01b600052602260045260246000fd5b50919050565b634e487b7160e01b600052601160045260246000fd5b8082018082111561067a5761067a611d44565b808202811582820484141761067a5761067a611d44565b600082611da157634e487b7160e01b600052601260045260246000fd5b500490565b601f821115610c2f57600081815260208120601f850160051c81016020861015611dcd5750805b601f850160051c820191505b8181101561144b57828155600101611dd9565b67ffffffffffffffff831115611e0457611e04611be5565b611e1883611e128354611d0a565b83611da6565b6000601f841160018114611e4c5760008515611e345750838201355b600019600387901b1c1916600186901b17835561144d565b600083815260209020601f19861690835b82811015611e7d5786850135825560209485019460019092019101611e5d565b5086821015611e9a5760001960f88860031b161c19848701351681555b505060018560011b0183555050505050565b60008351611ebe818460208801611922565b835190830190611ed2818360208801611922565b64173539b7b760d91b9101908152600501949350505050565b600060018201611efd57611efd611d44565b5060010190565b6001600160a01b0385811682528416602082015260408101839052608060608201819052600090611f3790830184611946565b9695505050505050565b600060208284031215611f5357600080fd5b8151610f92816118ef565b634e487b7160e01b600052603260045260246000fdfea2646970667358221220314777a4b6ec2949a968e2add815b0f2701b6dab3e97dcf5381b6e6ec3385bbc64736f6c63430008140033",
  "linkReferences": {},
  "deployedLinkReferences": {}
}